:040000006AEF00F0B3
:100018005F80D8CF6DF0E8CF6EF0E0CF6FF0E9CF1A
:1000280070F0EACF71F0E1CF72F0E2CF73F0D9CF80
:1000380074F0DACF75F0F3CF76F0F4CF77F0F6CF2F
:1000480078F0F7CF79F0F8CF7AF0F5CF7BF09EA073
:1000580030EF00F032EF00F041EF00F0B7EC0FF0B6
:1000680019EC0FF0020E6AEC1AF00001DF6F010EB6
:100078006AEC1AF00001DE6F9E90F2A446EF00F0E1
:1000880048EF00F04AEF00F0BAEC16F07BC0F5FF3D
:100098007AC0F8FF79C0F7FF78C0F6FF77C0F4FFA1
:1000A80076C0F3FF75C0DAFF74C0D9FF73C0E2FFF2
:1000B80072C0E1FF71C0EAFF70C0E9FF6FC0E0FFE6
:1000C8006EC0E8FF6DC0D8FF5F901000F6EF17F024
:100800000054656D70657261747572613A202020C4
:1008100030302575B0430054656D70657261747534
:1008200072613A202020302575B0430048756D650F
:100830006461643A2020202020202020303025755B
:100840000054656D70657261747572613A20202084
:100850002575B0430048756D656461643A202020B9
:1008600020202020203025750048756D6564616466
:100870003A202020202020202025750053503D3094
:100880003530B0430053503D303530250048693D88
:1008900030350025202000000101986F9CEF06F004
:1008A000030E01017E6FE2C07DF000017E6B7EC110
:1008B0007FF0806B3BEC16F0C3EF06F0010E0101F8
:1008C0007E6F53EF04F0E207030EE2616AEF04F07B
:1008D0006CEF04F070EF04F0030EE26F53EF04F0DE
:1008E0000D0EE26176EF04F078EF04F053EF04F0C0
:1008F000050EE2657EEF04F080EF04F053EF04F0A4
:10090000050EE26F53EF04F0E22B050EE2658BEF6C
:1009100004F08DEF04F099EF04F00D0EE26193EF17
:1009200004F095EF04F099EF04F00D0EE26F53EF31
:1009300004F00E0EE2659FEF04F0A1EF04F053EF18
:1009400004F00E0EE26F53EF04F0010E0101006F90
:10095000C3EF06F0E2C07DF07E6B7EC17FF0806B5E
:100960003BEC16F0010198510EEC15F001017E05EB
:10097000D8A4BDEF04F0BFEF04F0A4EF05F0060E1D
:100980000001E261C6EF04F0C8EF04F047EF05F0A4
:10099000000E7E6F030E7D6F000E806F010E7F6F65
:1009A0003BEC16F022EC19F0D00F01017D6F010E27
:1009B0007D65DDEF04F0DFEF04F0E1EF04F0010E00
:1009C0007D6F7D51640DF3CF7DF122EC19F00A0D9E
:1009D000F35001017D25200F7D6F22EC19F00101FC
:1009E0007D25D00F7D6F960E7D65F9EF04F0FBEF4E
:1009F00004F0FDEF04F0960E7D6F630E7D6503EF4E
:100A000005F005EF05F014EF05F0990E856F010E66
:100A1000866F500E876F080E886F7DC189F18A6BD3
:100A2000AAEC18F038EF05F0090E7D651AEF05F015
:100A30001CEF05F02BEF05F0990E856F010E866F08
:100A4000260E876F080E886F7DC189F18A6BAAEC2C
:100A500018F038EF05F0990E856F010E866F100EB5
:100A6000876F080E886F7DC189F18A6BAAEC18F038
:100A7000000E0001846F030E836F000E866F010E5F
:100A8000856F990E876F010E886F91EC1AF00C0E2E
:100A90000001E2654EEF05F050EF05F0A4EF05F020
:100AA000000E7E6F0D0E7D6F000E806F010E7F6F4A
:100AB0003BEC16F022EC19F0D00F0A0DF3CF7CF1CD
:100AC00022EC19F001017C25D00F7C6F7D517C5DFB
:100AD000D8A06DEF05F06FEF05F071EF05F00A0E8D
:100AE0007C6F090E7C6577EF05F079EF05F088EFF4
:100AF00005F0990E856F010E866F790E876F080ECF
:100B0000886F7CC189F18A6BAAEC18F095EF05F02B
:100B1000990E856F010E866F650E876F080E886FC0
:100B20007CC189F18A6BAAEC18F0000E0001846F79
:100B30000D0E836F000E866F010E856F990E876F05
:100B4000010E886F91EC1AF0030E01017E19D8A4F2
:100B5000ACEF05F0AEEF05F053EF04F0060E000128
:100B6000E261B5EF05F0B7EF05F03DEF06F0000EDE
:100B70007E6F030E7D6F000E806F030E7F6F3BEC68
:100B800016F022EC19F0D00F01017B6F010E7B658E
:100B9000CCEF05F0CEEF05F0D0EF05F0010E7B6F46
:100BA0007B51640DF3CF7BF122EC19F00A0DF35069
:100BB00001017B25200F7B6F22EC19F001017B25C1
:100BC000D00F7B6F640E7B65E8EF05F0EAEF05F070
:100BD000ECEF05F0640E7B6F630E7B65F2EF05F0C2
:100BE000F4EF05F003EF06F0990E856F010E866FA6
:100BF000790E876F080E886F7BC189F18A6BAAEC2A
:100C000018F027EF06F0090E7B6509EF06F00BEFF1
:100C100006F01AEF06F0990E856F010E866F650ECD
:100C2000876F080E886F7BC189F18A6BAAEC18F078
:100C300027EF06F0990E856F010E866F3C0E876FC9
:100C4000080E886F7BC189F18A6BAAEC18F0000E40
:100C50000001846F030E836F000E866F030E856F95
:100C6000990E876F010E886F91EC1AF0930E0001B8
:100C70007D6F080E7E6F97EC17F00C0E0001E26599
:100C800044EF06F046EF06F053EF04F0000E7E6FDF
:100C90000D0E7D6F000E806F030E7F6F3BEC16F024
:100CA00022EC19F0D00F0A0DF3CF7AF122EC19F0F3
:100CB00001017A25D00F7A6F7B517A5DD8A063EF5E
:100CC00006F065EF06F067EF06F00A0E7C6F090E7E
:100CD0007A656DEF06F06FEF06F07EEF06F0990E85
:100CE000856F010E866F790E876F080E886F7AC147
:100CF00089F18A6BAAEC18F08BEF06F0990E856FDC
:100D0000010E866F650E876F080E886F7AC189F1B4
:100D10008A6BAAEC18F0000E0001846F0D0E836F31
:100D2000000E866F030E856F990E876F010E886F18
:100D300091EC1AF053EF04F0010198510001CB6FD0
:100D4000CC6BCC51000AD8B4A8EF06F0AAEF04F09F
:100D5000CB51230AD8B484EF04F0090AD8B463EF66
:100D600004F06B0AD8B4A5EF04F0030AD8B4C3EFBB
:100D700006F0010AD8B45EEF04F0070AD8B450EFC9
:100D800004F0AAEF04F012001450800B1D6E1450F2
:100D90001424236E13AECFEF06F0D1EF06F0D2EF9E
:100DA00006F023802350D8B4D8EF06F0DAEF06F02F
:100DB000EDEF06F02328D8A4E0EF06F0E2EF06F00E
:100DC000EAEF06F0000E116E000E126E000E136EAA
:100DD000000E146E138EF5EF06F0000E116E000E6D
:100DE000126E000E136E000E146E1850800B1D1A3A
:100DF00018501824226E17AE00EF07F002EF07F02C
:100E000003EF07F022802250D8B409EF07F00BEF70
:100E100007F01EEF07F02228D8A411EF07F013EF18
:100E200007F01BEF07F0000E156E000E166E000E99
:100E3000176E000E186E178E26EF07F0000E156E57
:100E4000000E166E000E176E000E186E2250D8B4EB
:100E50002CEF07F02EEF07F036EF07F02350D8A461
:100E600034EF07F036EF07F040EF07F0000E116E99
:100E7000000E126E000E136E000E146ED8EF08F006
:100E800017501102F3CF28F0F4CF29F028501E6E2E
:100E90001F6A206A216A2950246E256A266A276AF9
:100EA00016501202F3CF28F0F4CF29F028501E2656
:100EB000000E1F222022212229502426000E252246
:100EC0002622272215501302F3CF28F0F4CF29F061
:100ED00028501E26000E1F222022212229502426BF
:100EE000000E25222622272220C021F01FC020F03C
:100EF0001EC01FF01E6A15501202F3CF28F0F4CF67
:100F000029F028501E2629501F22000E2022000EF4
:100F1000212216501102F3CF28F0F4CF29F02850E7
:100F20001E2629501F22000E2022000E212220C042
:100F300021F01FC020F01EC01FF01E6A15501102C4
:100F4000F3CF28F0F4CF29F028501E2629501F2275
:100F5000000E2022000E212217501202F3CF28F09B
:100F6000F4CF29F02850242629502522000E2622CD
:100F7000000E272216501302F3CF28F0F4CF29F0E9
:100F80002850242629502522000E2622000E272232
:100F900017501302F3CF28F0F4CF29F02850196E20
:100FA00029501A6E1B6A1C6A1BC01CF01AC01BF069
:100FB00019C01AF0196A195024261A5025221B50FC
:100FC00026221C5027221EC019F01FC01AF020C074
:100FD0001BF021C01CF0190EF3EF07F0D8901C3263
:100FE0001B321A321932E82EEEEF07F01950242680
:100FF0001A5025221B5026221C50272220C021F0E7
:101000001FC020F01EC01FF01E6A225023C019F01E
:101010001A6A1926000E1A22820E1924286EFF0E53
:101020001A20296E29EF08F0D89024362536263666
:10103000273621AE1EEF08F020EF08F021EF08F070
:101040002480D8901E361F36203621362806D8A098
:10105000290626AE2EEF08F030EF08F014EF08F066
:10106000000E226E21AE37EF08F039EF08F05DEF89
:1010700008F0FF0E1E14196EFF0E1F141A6EFF0EDD
:1010800020141B6E7F0E21141C6E19501A101B1099
:101090001C10D8B44EEF08F050EF08F054EF08F0F1
:1010A000010E226E5DEF08F024A059EF08F05BEF0F
:1010B00008F05DEF08F050EF08F02250D8B463EF6D
:1010C00008F065EF08F089EF08F0010E2426000E05
:1010D00025222622272227A070EF08F072EF08F0C1
:1010E00089EF08F024C019F025C01AF026C01BF0C3
:1010F00027C01CF01C341C321B321A32193219C0A2
:1011000024F01AC025F01BC026F01CC027F0284A86
:10111000292A29BE94EF08F0295008E12828D8A0F0
:1011200094EF08F096EF08F0A0EF08F0000E246EA0
:10113000000E256E800E266E7F0E276ECEEF08F015
:1011400029BEADEF08F0295006E12804D8B0ABEF76
:1011500008F0ADEF08F0B9EF08F0000E246E000EB5
:10116000256E000E266E000E276E000E1D6ECEEF51
:1011700008F028C023F0FF0E2416FF0E25167F0E60
:101180002616000E271623A0C8EF08F0CAEF08F0B5
:10119000CBEF08F0268ED8902330276E1D502712F3
:1011A00024C011F025C012F026C013F027C014F09F
:1011B00012002D50800B3A6E2D502D24416E2CAE16
:1011C000E4EF08F0E6EF08F0E7EF08F04180415067
:1011D000D8B4EDEF08F0EFEF08F004EF09F0412884
:1011E000D8A4F5EF08F0F7EF08F0FFEF08F0000ED5
:1011F0002A6E000E2B6E000E2C6E000E2D6E2C8EA5
:10120000000E2D6E0CEF09F0000E2A6E000E2B6EF4
:10121000000E2C6E000E2D6E3150800B3A1A31509C
:101220003124426E30AE17EF09F019EF09F01AEFD2
:1012300009F042804250D8B420EF09F022EF09F0C3
:1012400037EF09F04228D8A428EF09F02AEF09F077
:1012500032EF09F0000E2E6E000E2F6E000E306E73
:10126000000E316E308E000E316E3FEF09F0000E31
:101270002E6E000E2F6E000E306E000E316E2E5050
:101280002F1030103110D8A448EF09F04AEF09F0C0
:1012900062EF09F0000E2A6E000E2B6E000E2C6E0F
:1012A000000E2D6E800E2C127F0E2D123A502D1234
:1012B0002AC02AF02BC02BF02CC02CF02DC02DF012
:1012C000A5EF0AF04150D8A468EF09F06AEF09F0E1
:1012D00074EF09F0000E2A6E000E2B6E000E2C6EBD
:1012E000000E2D6EA5EF0AF0425041C032F0336A75
:1012F000325E000E335A7F0E32243B6E000E3320D6
:101300003C6E2AC036F02BC037F02CC038F02DC010
:1013100039F0000E2A6E000E2B6E000E2C6E000EA1
:101320002D6E000E3D6E000E3E6E000E3F6E000EE6
:10133000406E000E426ED5EF09F04250D8B4A3EFD4
:1013400009F0A5EF09F0BCEF09F0D8903636373632
:1013500038363936D8902A362B362C362D3640AED4
:10136000B4EF09F0B6EF09F0B7EF09F02A80D89092
:101370003D363E363F3640362E50365C2F5037587D
:101380003050385831503958D8A0C9EF09F0CBEF58
:1013900009F0D4EF09F0408C2E50365E2F50375AAA
:1013A0003050385A3150395A422A190E4264DBEF14
:1013B00009F0DDEF09F09DEF09F0365037103810D5
:1013C0003910D8B4E6EF09F0E8EF09F000EF0AF0C1
:1013D0003D8000EF0AF0D8902A362B362C362D3679
:1013E00040AEF5EF09F0F7EF09F0F8EF09F02A80C9
:1013F000D8903D363E363F3640363B06D8A03C06B8
:101400002CAE05EF0AF007EF0AF0EBEF09F0000E43
:10141000426E40AE0EEF0AF010EF0AF034EF0AF021
:10142000FF0E3D14326EFF0E3E14336EFF0E3F145E
:10143000346E7F0E4014356E325033103410351038
:10144000D8B425EF0AF027EF0AF02BEF0AF0010ECF
:10145000426E34EF0AF02AA030EF0AF032EF0AF0C1
:1014600034EF0AF027EF0AF04250D8B43AEF0AF00E
:101470003CEF0AF060EF0AF0010E2A26000E2B2244
:101480002C222D222DA047EF0AF049EF0AF060EF41
:101490000AF02AC032F02BC033F02CC034F02DC03B
:1014A00035F03534353234323332323232C02AF00C
:1014B00033C02BF034C02CF035C02DF03B4A3C2A11
:1014C0003CBE6BEF0AF03C5008E13B28D8A06BEF24
:1014D0000AF06DEF0AF078EF0AF0000E3C6E3B6800
:1014E000000E2A6E000E2B6E000E2C6E000E2D6E5E
:1014F0003CBE85EF0AF03C5006E13B04D8B083EFD8
:101500000AF085EF0AF093EF0AF0000E3C6E000E31
:101510003B6E000E2A6E000E2B6E000E2C6E000E1F
:101520002D6E000E3A6E3BC041F041A09AEF0AF0DA
:101530009CEF0AF09FEF0AF02C8EA0EF0AF02C9E91
:10154000D89041302D6E56EF09F012000001D2BF45
:10155000ACEF0AF0AEEF0AF0AFEF0AF0D393D2BFD0
:10156000BCEF0AF0D25106E1D105D8B0BAEF0AF0CB
:10157000BCEF0AF0C2EF0AF0000EAA6F010EA96FCD
:10158000C6EF0AF0D1C0A9F0D2C0AAF0CFC0ABF02C
:10159000D0C0ACF099C0ADF09AC0AEF09BC0AFF037
:1015A0009CC0B0F09DC0B1F09EC0B2F09FC0B3F03F
:1015B000A0C0B4F0000EB66F1F0EB56F000E010193
:1015C000496F5AEF0BF0B507D8A0B6072A0EB5251C
:1015D000D96E010EB621DA6EADC07CF0AEC07DF0E2
:1015E000AFC07EF0B0C07FF0B1C080F0B2C081F07B
:1015F000B3C082F0B4C083F00A0E846F000E856F12
:10160000000E866F000E876F000E886F000E896FC8
:10161000000E8A6F000E8B6FAAEC12F07CC0A1F056
:101620007DC0A2F07EC0A3F07FC0A4F080C0A5F072
:1016300081C0A6F082C0A7F083C0A8F00001A1512C
:10164000300FDF6EA907D8A0AA07AB07D8A0AC0758
:10165000ADC07CF0AEC07DF0AFC07EF0B0C07FF01A
:10166000B1C080F0B2C081F0B3C082F0B4C083F0EA
:101670000A0E846F000E856F000E866F000E876F56
:10168000000E886F000E896F000E8A6F000E8B6F40
:10169000CDEC10F07CC0ADF07DC0AEF07EC0AFF000
:1016A0007FC0B0F080C0B1F081C0B2F082C0B3F0B2
:1016B00083C0B4F00001B551B611D8B462EF0BF09D
:1016C00064EF0BF094EF0BF0AD51AE11AF11B01110
:1016D000B111B211B311B411D8A471EF0BF073EFC3
:1016E0000BF0E3EF0AF0AABF80EF0BF0AA5106E17E
:1016F000A905D8B07EEF0BF080EF0BF0E3EF0AF016
:10170000ACBF8BEF0BF0AC5108E1AB05D8A08BEF71
:101710000BF08DEF0BF094EF0BF0D3B392EF0BF0D7
:1017200094EF0BF0E3EF0AF097C08CF098C08DF0C7
:101730002A0EB5258E6F010EB6218F6FABC090F0CB
:10174000ACC091F0E1EC13F08CC097F08DC098F034
:1017500012000001D2BFAFEF0BF0B1EF0BF0B2EF10
:101760000BF0D393D2BFBFEF0BF0D25106E1D105FE
:10177000D8B0BDEF0BF0BFEF0BF0C5EF0BF0000ED4
:101780002F6E010E2E6EC9EF0BF0D1C02EF0D2C01D
:101790002FF0CFC030F0D0C031F01EC032F01FC0EB
:1017A00033F020C034F021C035F022C036F023C021
:1017B00037F024C038F025C039F0000E3B6E1F0E04
:1017C0003A6E000E0101496F5CEF0CF03A06D8A0AA
:1017D0003B062A0E3A24D96E010E3B20DA6E32C047
:1017E00001F033C002F034C003F035C004F036C05D
:1017F00005F037C006F038C007F039C008F00A0E0F
:10180000096E000E0A6E000E0B6E000E0C6E000EBE
:101810000D6E000E0E6E000E0F6E000E106E13ECAD
:1018200013F001C026F002C027F003C028F004C066
:1018300029F005C02AF006C02BF007C02CF008C024
:101840002DF02650300FDF6E2E06D8A02F06300662
:10185000D8A0310632C001F033C002F034C003F02A
:1018600035C004F036C005F037C006F038C007F0C8
:1018700039C008F00A0E096E000E0A6E000E0B6EDB
:10188000000E0C6E000E0D6E000E0E6E000E0F6E32
:10189000000E106EBFEC11F001C032F002C033F048
:1018A00003C034F004C035F005C036F006C037F090
:1018B00007C038F008C039F03A503B10D8B463EF95
:1018C0000CF065EF0CF096EF0CF032503310341042
:1018D00035103610371038103910D8A472EF0CF0CC
:1018E00074EF0CF0E6EF0BF02FBE81EF0CF02F50F1
:1018F00006E12E04D8B07FEF0CF081EF0CF0E6EF9C
:101900000BF031BE8CEF0CF0315008E13004D8A060
:101910008CEF0CF08EEF0CF096EF0CF00001D3B3CF
:1019200094EF0CF096EF0CF0E6EF0BF01CC011F00A
:101930001DC012F02A0E3A24136E010E3B20146EC5
:1019400030C015F031C016F0ABEC14F011C01CF033
:1019500012C01DF012000B6E0B50D8B4B2EF0CF099
:10196000B4EF0CF0D6EF0CF006BEBBEF0CF0B9EF05
:101970000CF0D6EF0CF003C007F004C008F005C06F
:1019800009F006C00AF0071E081E091E0A1E072AD3
:10199000000E082209220A2207C00DF008C00EF02E
:1019A00009C00FF00AC010F0DEEF0CF003C00DF01C
:1019B00004C00EF005C00FF006C010F00350041074
:1019C00005100610D8A4E7EF0CF0E9EF0CF0F3EFE8
:1019D0000CF0000E036E000E046E000E056E000E7D
:1019E000066E84EF0DF0960E0C6EFDEF0CF00C2AD7
:1019F000D89010320F320E320D32000E0D14076ED9
:101A0000000E0E14086E000E0F14096EFE0E101458
:101A10000A6E0750081009100A10D8A412EF0DF032
:101A200014EF0DF0F7EF0CF022EF0DF00C2A010E81
:101A30000D26000E0E220F221022D89010320F32E7
:101A40000E320D32000E0D14076E000E0E14086ECD
:101A5000000E0F14096EFF0E10140A6E07500810C6
:101A600009100A10D8A437EF0DF039EF0DF016EF7A
:101A70000DF041EF0DF00C06D8900D360E360F36F6
:101A800010360FBE46EF0DF048EF0DF050EF0DF0A1
:101A9000020E0C604EEF0DF050EF0DF03BEF0DF02D
:101AA0000CB055EF0DF057EF0DF058EF0DF00F9E05
:101AB000D8900C320CC007F0086A096A0A6A07C09D
:101AC0000AF0096A086A076A07500D1208500E12D8
:101AD00009500F120A5010120B50D8B472EF0DF0CB
:101AE00074EF0DF07CEF0DF006BE7BEF0DF079EF9B
:101AF0000DF07CEF0DF0108E0DC003F00EC004F061
:101B00000FC005F010C006F01200B9C0D9FFBAC06E
:101B1000DAFFDECFF6FFDDCFF7FF0800F550250A2C
:101B2000D8A495EF0DF097EF0DF033EF0EF0B9C09C
:101B3000D9FFBAC0DAFFDE2A000EDD22000E000156
:101B4000D06F000ECF6FCFC0D3F0D0C0D4F0D1692A
:101B5000D269B9C0D9FFBAC0DAFFDECFF6FFDDCF58
:101B6000F7FF0800F550750AD8A4B9EF0DF0BBEFE8
:101B70000DF0FCEF0DF0B9C0D9FFBAC0DAFFDE2AD4
:101B8000000EDD22BBC0D9FFBCC0DAFFDFCFBDF045
:101B9000020EDE26DFCFBEF0000EDD22BDC0D9FF73
:101BA000BEC0DAFFDECFBFF0DDCFC0F0BFC0C1F0F6
:101BB000C0C0C2F0C36BC46BC56BC66BC76BC86BD0
:101BC000B7C097F0B8C098F0C1C099F0C2C09AF001
:101BD000C3C09BF0C4C09CF0C5C09DF0C6C09EF0C1
:101BE000C7C09FF0C8C0A0F0A6EC0AF097C0B7F03D
:101BF00098C0B8F04FEF0EF0B9C0D9FFBAC0DAFF05
:101C0000DECFF6FFDDCFF7FF0800F550250AD8A498
:101C10000CEF0EF00EEF0EF026EF0EF0B9C0D9FF6C
:101C2000BAC0DAFFDE2A000EDD22000E7D6F250E1F
:101C30007C6FB7C07EF0B8C07FF07BEC13F0000E75
:101C40000001B86F010EB76F4FEF0EF0B9C0D9FFAA
:101C5000BAC0DAFFDE2A000EDD22000EB86F000ED9
:101C6000B76F4FEF0EF0B9C0D9FFBAC0DAFFDECFC1
:101C7000F6FFDDCFF7FF0800F55000017C6F7D6BAC
:101C8000B7C07EF0B8C07FF07BEC13F0B9C0D9FFCD
:101C9000BAC0DAFFDE2A000EDD221FEF0EF01200BE
:101CA0003EC0D9FF3FC0DAFFDECFF6FFDDCFF7FF42
:101CB0000800F550250AD8A460EF0EF062EF0EF090
:101CC000FDEF0EF03EC0D9FF3FC0DAFFDE2A000E66
:101CD000DD22000E0001D06F000ECF6FCFC0D3F019
:101CE000D0C0D4F0D169D2693EC0D9FF3FC0DAFF7D
:101CF000DECFF6FFDDCFF7FF0800F550750AD8A458
:101D000084EF0EF086EF0EF0C7EF0EF03EC0D9FF65
:101D10003FC0DAFFDE2A000EDD2240C0D9FF41C0FD
:101D2000DAFFDFCF42F0020EDE26DFCF43F0000EF7
:101D3000DD2242C0D9FF43C0DAFFDECF44F0DDCF61
:101D400045F044C046F045C047F0486A496A4A6ACF
:101D50004B6A4C6A4D6A3CC01CF03DC01DF046C049
:101D60001EF047C01FF048C020F049C021F04AC013
:101D700022F04BC023F04CC024F04DC025F0A9EC5C
:101D80000BF01CC03CF01DC03DF018EF0FF03EC042
:101D9000D9FF3FC0DAFFDECFF6FFDDCFF7FF080047
:101DA000F550250AD8A4D7EF0EF0D9EF0EF0F0EFDA
:101DB0000EF03EC0D9FF3FC0DAFFDE2A000EDD2262
:101DC000000E026E250E016E3CC003F03DC004F013
:101DD00046EC14F0000E3D6E010E3C6E18EF0FF055
:101DE0003EC0D9FF3FC0DAFFDE2A000EDD22000E22
:101DF0003D6E000E3C6E18EF0FF03EC0D9FF3FC0A5
:101E0000DAFFDECFF6FFDDCFF7FF0800F550016EF9
:101E1000026A3CC003F03DC004F046EC14F03EC042
:101E2000D9FF3FC0DAFFDE2A000EDD22EAEF0EF016
:101E30001200000E2E6E000E2F6E7F0E306E430EBF
:101E4000316E000E156E000E166EC80E176E420E25
:101E5000186E030E6AEC1AF05C6E5C50036E046A36
:101E6000056A066A010EABEC0CF003C011F004C069
:101E700012F005C013F006C014F0C4EC06F011C057
:101E80002AF012C02BF013C02CF014C02DF0D9ECA6
:101E900008F02AC043F02BC044F02CC045F02DC000
:101EA00046F04AEC10F043500001DA6F630EDA6539
:101EB0005CEF0FF05EEF0FF06DEF0FF0020E566E5D
:101EC000010E576E690E586E080E596EDAC05AF040
:101ED0005B6AD3EC18F091EF0FF0090EDA6573EF3F
:101EE0000FF075EF0FF084EF0FF0020E566E010E3B
:101EF000576E550E586E080E596EDAC05AF05B6A6E
:101F0000D3EC18F091EF0FF0020E566E010E576EE3
:101F10002C0E586E080E596EDAC05AF05B6AD3EC7C
:101F200018F0000E096E000E086E000E0B6E020E09
:101F30000A6E020E0C6E010E0D6EA2EC1AF0250E4A
:101F4000AAEC15F001010051D8A4A9EF0FF0ABEFF6
:101F50000FF0AEEF0FF00D0E7FEC18F0E2C002F0C4
:101F6000036A7EC104F0056A7BEC16F01200000ED5
:101F70002E6E000E2F6E7F0E306E430E316E000EF1
:101F8000156E000E166E160E176E430E186E000EAE
:101F90006AEC1AF05C6E5C50036E046A056A066AAD
:101FA000010EABEC0CF003C011F004C012F005C040
:101FB00013F006C014F0C4EC06F011C02AF012C0F1
:101FC0002BF013C02CF014C02DF0D9EC08F02AC06F
:101FD00043F02BC044F02CC045F02DC046F04AEC35
:101FE00010F043500001DB6F630EDB65FAEF0FF07A
:101FF000FCEF0FF00BEF10F0020E566E010E576E55
:10200000410E586E080E596EDBC05AF05B6AD3EC75
:1020100018F02FEF10F0090EDB6511EF10F013EF41
:1020200010F022EF10F0020E566E010E576E170ED2
:10203000586E080E596EDBC05AF05B6AD3EC18F08C
:102040002FEF10F0020E566E010E576E010E586EF5
:10205000080E596EDBC05AF05B6AD3EC18F0010130
:102060000051D8A436EF10F038EF10F03BEF10F02D
:102070000C0E7FEC18F0000E096E000E086E000EBC
:102080000B6E000E0A6E020E0C6E010E0D6EA2ECAF
:102090001AF01200453446344C6E4C50D8A453EF1D
:1020A00010F055EF10F05FEF10F0000E436E000ED1
:1020B000446E000E456E000E466ECCEF10F043C02D
:1020C00047F044C048F045C049F046C04AF0200EF1
:1020D0006FEF10F0D8904A32493248324732E82E3A
:1020E0006AEF10F047504B6E458EFF0E4316FF0E01
:1020F0004416FF0E4516000E4616960E4C5E4CBE5C
:1021000086EF10F084EF10F09CEF10F04C50800A36
:10211000970FD8B08EEF10F090EF10F092EF10F014
:1021200055EF10F0D89046324532443243324C3E9F
:1021300092EF10F0B4EF10F01F0E4C64A2EF10F00D
:10214000A4EF10F0ACEF10F055EF10F0D89043363C
:102150004436453646364C064C50D8A4B2EF10F003
:10216000B4EF10F0A6EF10F04B50D8B4BAEF10F067
:10217000BCEF10F0C4EF10F0461E451E441E436C29
:10218000000E44224522462243C043F044C044F09E
:1021900045C045F046C046F0120020EE8CF0070E18
:1021A000DE6AE806FDE2000184518511861187117F
:1021B000881189118A118B11D8B4E1EF10F0E3EF87
:1021C00010F035EF11F0010E946FF1EF10F0D89090
:1021D0008437853786378737883789378A378B370B
:1021E000942B8BAFF6EF10F0F8EF10F0E7EF10F054
:1021F000D8908C378D378E378F379037913792370D
:10220000933784517C5D85517D5986517E59875124
:102210007F5988518059895181598A5182598B51EE
:102220008359D8A016EF11F018EF11F029EF11F033
:1022300084517C5F85517D5B86517E5B87517F5BDE
:102240008851805B8951815B8A51825B8B51835BB2
:102250008C81D8908B338A338933883387338633A4
:1022600085338433942FF8EF10F08CC07CF08DC050
:102270007DF08EC07EF08FC07FF090C080F091C066
:1022800081F092C082F093C083F0120001017D5171
:102290007C250001E16F01017C517D5D0001E06F53
:1022A00001017B517A250001DC6F01017A517B5DD0
:1022B0000001DD6F0001DB51E15DD8B062EF11F08C
:1022C00064EF11F06FEF11F0000E03EC1BF0020E43
:1022D0003EEC1AF00001DF6FDF51FEEC1AF0000156
:1022E000E051DB5DD8B077EF11F079EF11F084EFBA
:1022F00011F0000EFEEC1AF0010E3EEC1AF0000197
:10230000DE6FDE5103EC1BF00001DA51DC5DD8B06A
:102310008CEF11F08EEF11F092EF11F08988899A0D
:10232000A1EF11F0DD51DA5DD8B099EF11F09BEF1C
:1023300011F09FEF11F08998898AA1EF11F0899827
:10234000899A01010051D8A4A8EF11F0AAEF11F069
:10235000ACEF11F0B9EF11F05EEC15F00101016F77
:10236000420E0119D8A4B7EF11F0B9EF11F05AEFEE
:1023700011F055EC1AF0000E0101006F120020EE72
:1023800011F0070EDE6AE806FDE209500A100B1094
:102390000C100D100E100F101010D8B4D2EF11F059
:1023A000D4EF11F026EF12F0010E196EE2EF11F0EA
:1023B000D89009360A360B360C360D360E360F36E7
:1023C0001036192A10AEE7EF11F0E9EF11F0D8EF4F
:1023D00011F0D890113612361336143615361636DB
:1023E000173618360950015C0A5002580B50035832
:1023F0000C5004580D5005580E5006580F500758F1
:1024000010500858D8A007EF12F009EF12F01AEF99
:1024100012F00950015E0A50025A0B50035A0C5038
:10242000045A0D50055A0E50065A0F50075A1050B4
:10243000085A1180D89010320F320E320D320C3201
:102440000B320A320932192EE9EF11F011C001F0F6
:1024500012C002F013C003F014C004F015C005F060
:1024600016C006F017C007F018C008F012009298C6
:10247000929A94907FEC1AF0B3EC1AF0EEEC1AF00A
:10248000C2EC1AF0CFEC1AF0FF0E26EC1AF0000E98
:102490000001846F000E836F000E866F010E856F42
:1024A0007C0E876F080E886F91EC1AF0000E000109
:1024B000846F0A0E836F000E866F010E856F8D0E7E
:1024C000876F080E886F91EC1AF0000E0001846F80
:1024D000000E836F000E866F030E856F850E876F6B
:1024E000080E886F91EC1AF0000E0001846F0A0E3E
:1024F000836F000E866F030E856F8D0E876F080E3B
:10250000886F91EC1AF0D08EF28EF28C899A8998AD
:10251000000E03EC1BF0000EFEEC1AF0E2C07DF0A2
:1025200000017E6B000E806F020E7F6F3BEC16F099
:102530000D0E24EC18F052EC18F046EC11F0000EE1
:1025400000017D6F320E7C6FFCEC18F086EF12F00C
:102550006AEF00F0000184518511861187118811FE
:1025600089118A118B11D8B4B8EF12F0BAEF12F0BA
:1025700002EF13F0010E8C6FC8EF12F0D890843781
:10258000853786378737883789378A378B378C2B5B
:102590008BAFCDEF12F0CFEF12F0BEEF12F08451FF
:1025A0007C5D85517D5986517E5987517F5988516F
:1025B0008059895181598A5182598B518359D8A0A8
:1025C000E4EF12F0E6EF12F0F6EF12F084517C5FC8
:1025D00085517D5B86517E5B87517F5B8851805B37
:1025E0008951815B8A51825B8B51835BD8908B339D
:1025F0008A338933883387338633853384338C2F0A
:10260000CFEF12F07CC07CF07DC07DF07EC07EF00C
:102610007FC07FF080C080F081C081F082C082F0F6
:1026200083C083F0120009500A100B100C100D101B
:102630000E100F101010D8B420EF13F022EF13F08B
:102640006AEF13F0010E116E30EF13F0D8900936D7
:102650000A360B360C360D360E360F361036112A6A
:1026600010AE35EF13F037EF13F026EF13F00950EB
:10267000015C0A5002580B5003580C5004580D507E
:1026800005580E5006580F50075810500858D8A03B
:102690004CEF13F04EEF13F05EEF13F00950015EB4
:1026A0000A50025A0B50035A0C50045A0D50055A46
:1026B0000E50065A0F50075A1050085AD890103230
:1026C0000F320E320D320C320B320A320932112E19
:1026D00037EF13F001C001F002C002F003C003F0B5
:1026E00004C004F005C005F006C006F007C007F0FE
:1026F00008C008F0120000017E517F11D8B483EFAA
:1027000013F085EF13F08EEF13F07E517F11D8A4F4
:102710008CEF13F08EEF13F093EF13F07C5112EC6B
:102720001BF0E0EF13F020EE09F07E51D9267F5127
:10273000DA22DE50DE10D8B4A0EF13F0A2EF13F0CF
:10274000BDEF13F020EE09F07E51D9267F51DA2239
:1027500010EE03F07E51E1267F51E222DE50E65C6E
:10276000E650800A846FDE50800A8459D8B0BBEFEF
:1027700013F0BDEF13F0E0EF13F020EE03F07E5105
:10278000D9267F51DA22DECF80F0DDCF81F07EC006
:10279000D9FF7FC0DAFFDECF82F0DDCF83F080513A
:1027A0008225D96E81518321DA6E7CC0DFFF20EE55
:1027B00003F07E51D9267F51DA22DE2A000EDD2277
:1027C00012000001D3A1E7EF13F0E9EF13F0F3EFEC
:1027D00013F08EC085F08FC086F08CC087F08DC05E
:1027E00088F047EC19F0000191BFF9EF13F0FBEF0F
:1027F00013F001EF14F090C095F091C096F005EF42
:1028000014F0000E966F000E956F000E946F000E80
:10281000936F18EF14F0000E7D6F200E7C6F8CC04C
:102820007EF08DC07FF07BEC13F00001934B942B76
:102830009551935D9451800A926F9651800A9259F6
:10284000D8A025EF14F027EF14F00BEF14F0D3B15C
:102850002CEF14F02EEF14F038EF14F08EC085F04A
:102860008FC086F08CC087F08DC088F047EC19F0DF
:102870008EC07CF08FC07DF0D3EC19F00001955133
:102880007C258C6F96517D218D6F120003500410B2
:10289000D8B44DEF14F04FEF14F058EF14F003508C
:1028A0000410D8A456EF14F058EF14F05DEF14F0B4
:1028B000015013EC1BF0AAEF14F020EE09F00350C6
:1028C000D9260450DA22DE50DE10D8B46AEF14F0B4
:1028D0006CEF14F087EF14F020EE09F00350D926C6
:1028E0000450DA2210EE03F00350E1260450E222F5
:1028F000DE50E65CE650800A096EDE50800A095818
:10290000D8B085EF14F087EF14F0AAEF14F020EEA2
:1029100003F00350D9260450DA22DECF05F0DDCFD4
:1029200006F003C0D9FF04C0DAFFDECF07F0DDCF29
:1029300008F005500724D96E06500820DA6E01C051
:10294000DFFF20EE03F00350D9260450DA22DE2AFE
:10295000000EDD2212000001D3A1B1EF14F0B3EF9D
:1029600014F0BDEF14F013C00AF014C00BF011C046
:102970000CF012C00DF0B1EC19F016BEC2EF14F05D
:10298000C4EF14F0CAEF14F015C01AF016C01BF013
:10299000CEEF14F0000E1B6E000E1A6E000E196EB4
:1029A000000E186EE0EF14F0000E026E200E016EA5
:1029B00011C003F012C004F046EC14F0184A192AB2
:1029C0001A50185C1950800A176E1B50800A17584D
:1029D000D8A0EDEF14F0EFEF14F0D4EF14F00001F5
:1029E000D3B1F5EF14F0F7EF14F001EF15F013C0C9
:1029F0000AF014C00BF011C00CF012C00DF0B1ECD5
:102A000019F013C001F014C002F0F0EC19F01A50E4
:102A10000124116E1B500220126E120000017C6F07
:102A2000F10E00017C19D8B418EF15F01AEF15F06B
:102A300023EF15F0D10E7C19D8A421EF15F023EF68
:102A400015F025EF15F0EE0E7C6FB00E7C19D8A4B2
:102A50002CEF15F02EEF15F030EF15F0DF0E7C6F38
:102A60006BEC19F00009D8A438EF15F03AEF15F027
:102A700030EF15F0F00E9516F00E831600017C393C
:102A80000F0B0F0B83128C8A8C98F9EC1AF08C8C3C
:102A9000F9EC1AF08C9CF9EC1AF0F00E8316000198
:102AA0007C510F0B8312F9EC1AF08C8CF9EC1AF0B4
:102AB0008C9C0F0E9512F4EC1AF01200000E00011F
:102AC0007C6FFE0E8A6E8FEF15F081B86AEF15F0FD
:102AD0006CEF15F06EEF15F097EF15F07C2B81BAC7
:102AE00074EF15F076EF15F078EF15F097EF15F01D
:102AF0007C2B81BC7EEF15F080EF15F082EF15F096
:102B000097EF15F07C2B81BE88EF15F08AEF15F05A
:102B10008CEF15F097EF15F07C2BD8808A360E0ECF
:102B20007C6595EF15F097EF15F065EF15F00F0E3A
:102B30007C659DEF15F09FEF15F0A2EF15F0000EEC
:102B4000A9EF15F05B0E7C25D96EDA6A010EDA2248
:102B5000DF501200016EF10E0118D8B4B2EF15F07B
:102B6000B4EF15F0BDEF15F0D10E0118D8A4BBEFEE
:102B700015F0BDEF15F0BFEF15F0EE0E016EB00EC3
:102B80000118D8A4C6EF15F0C8EF15F0CAEF15F07C
:102B9000DF0E016E8EEC19F00009D8A4D2EF15F00B
:102BA000D4EF15F0CAEF15F0F00E9516F00E83165F
:102BB00001380F0B0F0B83128C8A8C980DEC1BF0D5
:102BC0008C8C0DEC1BF08C9C0DEC1BF0F00E831626
:102BD00001500F0B83120DEC1BF08C8C0DEC1BF0D5
:102BE0008C9C0F0E951208EC1BF012000001806FF8
:102BF000DCEC1AF0F00E83160F0E95129598959A4C
:102C0000959C8C988C9A8C9CDCEC1AF0F00E9516A6
:102C1000F00E831683828C8CF9EC1AF08C9CE5EC18
:102C20001AF0F00E831683828C8CF9EC1AF08C9CCF
:102C3000E5EC1AF0F00E831683828C8CF9EC1AF016
:102C40008C9C0F0E95120001805124EC18F00001AD
:102C5000805124EC18F0080E24EC18F00F0E24EC30
:102C600018F0010E24EC18F0130E24EC18F0000EEE
:102C7000F9EC16F012005BEF16F07D51800F24EC9A
:102C800018F07AEF16F07D51C00F24EC18F07AEFAF
:102C900016F07D51940F24EC18F07AEF16F07D5168
:102CA000D40F24EC18F07AEF16F07D51800F24EC4D
:102CB00018F07AEF16F07FC081F080C082F000013A
:102CC0008251000AD8B467EF16F055EF16F0815123
:102CD000000AD8B43DEF16F0010AD8B443EF16F05D
:102CE000030AD8B449EF16F0010AD8B44FEF16F032
:102CF00055EF16F012009BEF16F00250800F7FEC9C
:102D000018F0B9EF16F00250C00F7FEC18F0B9EFD1
:102D100016F00250940F7FEC18F0B9EF16F0025045
:102D2000D40F7FEC18F0B9EF16F00250800F7FEC53
:102D300018F0B9EF16F004C006F005C007F0075010
:102D4000000AD8B4A6EF16F095EF16F00650000A68
:102D5000D8B47DEF16F0010AD8B483EF16F0030A59
:102D6000D8B489EF16F0010AD8B48FEF16F095EFBA
:102D700016F012003C0ED76EB00ED66E8B8084A279
:102D8000C4EF16F0C6EF16F0D7EF16F084B0CBEF15
:102D900016F0CDEF16F0D7EF16F00A0E016EBC0E4E
:102DA000E82EFED7012EFCD700D0F6EF16F084A057
:102DB000DCEF16F0DEEF16F0EEEF16F084B2E3EF84
:102DC00016F0E5EF16F0EEEF16F00D0E016EFC0EAC
:102DD000E82EFED7012EFCD7F6EF16F0070E016E97
:102DE0007D0EE82EFED7012EFCD700F08B90F294DA
:102DF000120000017F6F6BEC19F00009D8A403EFFB
:102E000017F005EF17F0FBEF16F0F00E9516F00E29
:102E1000831600017F517C6F7D6B800E7C13000E4A
:102E20007D13040E7E6F7D357D337C337E2F13EF53
:102E300017F07C510F0B83128C988C9AF9EC1AF0D6
:102E40008C8CF9EC1AF08C9CF00E831600017F51EB
:102E50000F0B8312F9EC1AF08C8CF9EC1AF08C9CA5
:102E60000F0E9512F4EC1AF0120081C1C9F082C164
:102E7000CAF0000E0001CE6F000ECD6F53EF17F0B9
:102E80007FC1B7F080C1B8F0C90EB96F000EBA6F3C
:102E900083C1BBF084C1BCF085EC0DF00001B751DB
:102EA000CD27B851CE23C9C0F6FFCAC0F7FF08002E
:102EB000F5500009D8A45FEF17F061EF17F040EF6D
:102EC00017F0CDC07FF1CEC080F1120050C054F099
:102ED00051C055F0000E0001CE6F000ECD6F84EF93
:102EE00017F04EC03CF04FC03DF0540E3E6E000E49
:102EF0003F6E52C040F053C041F050EC0EF03C50D9
:102F00000001CD273D50CE2354C0F6FF55C0F7FF3A
:102F10000800F5500009D8A490EF17F092EF17F0D1
:102F200071EF17F0CDC04EF0CEC04FF01200AEEFF3
:102F300017F07DC0F6FF7EC0F7FFF86A070EF76452
:102F400003D00800F55005D0F6CFE9FFF7CFEAFF30
:102F5000EF500EEC15F000017D4B7E2B7DC0F6FF8F
:102F60007EC0F7FFF86A070EF76403D00800F5503B
:102F700005D0F6CFE9FFF7CFEAFFEF500009D8A45C
:102F8000C4EF17F0C6EF17F099EF17F01200DDEF5E
:102F900017F002C0F6FF03C0F7FFF86A070EF764E8
:102FA00003D00800F55005D0F6CFE9FFF7CFEAFFD0
:102FB000EF50AAEC15F0024A032A02C0F6FF03C044
:102FC000F7FFF86A070EF76403D00800F55005D044
:102FD000F6CFE9FFF7CFEAFFEF500009D8A4F3EFEF
:102FE00017F0F5EF17F0C9EF17F01200160EF66E96
:102FF000340EF76E000EF86E01EE4AF010EE35F06A
:103000000900F5CFEEFFE550E150FAE1280EF66E2B
:10301000360EF76E000EF86E0900F5CFE2F001EE05
:1030200000F04A0EEE6AE806FDE100EECDF0150E66
:10303000EE6AE806FDE15E6A5D6A5F905F92000EEF
:10304000F86E000137EF12F000017C6F6BEC19F0A5
:103050000009D8A42EEF18F030EF18F026EF18F082
:10306000F00E9516F00E831600017C390F0B0F0B36
:1030700083128C988C9AF9EC1AF08C8CF9EC1AF07B
:103080008C9CF00E831600017C510F0B8312F9EC1F
:103090001AF08C8CF9EC1AF08C9C0F0E9512F4EC53
:1030A0001AF0120072EF18F00005D8A45AEF18F0C9
:1030B0005CEF18F060EF18F0410E016F6CEF18F044
:1030C0005EEC15F00101016F0151D8B46AEF18F000
:1030D0006CEF18F054EF18F055EC1AF001010151A3
:1030E0004CEC04F001010051D8B479EF18F07BEFFB
:1030F00018F054EF18F00C0E24EC18F01200016ECA
:103100008EEC19F00009D8A488EF18F08AEF18F0B7
:1031100080EF18F0F00E9516F00E831601380F0BA5
:103120000F0B83128C988C9A0DEC1BF08C8C0DEC91
:103130001BF08C9CF00E831601500F0B83120DECCC
:103140001BF08C8C0DEC1BF08C9C0F0E951208EC78
:103150001BF01200890E01018B6F010E8C6F85C16F
:103160008DF186C18EF1000E916F000E906F000EF2
:10317000976F000E966F8D0E7F6F010E806F87C167
:1031800081F188C182F18B0E836F010E846F35EC63
:1031900017F0010190518525D96E91518621DA6E83
:1031A000000EDF6E12005A0E0001606F000E616F9C
:1031B00056C062F057C063F0000E666F000E656F78
:1031C000000E6C6F000E6B6F620E4E6E000E4F6E37
:1031D00058C050F059C051F0600E526E000E536E40
:1031E00066EC17F0000165515624D96E66515720E0
:1031F000DA6E000EDF6E1200000E00017F6F000E0F
:103200007E6F16EF19F0000E816F000E806F804BFD
:10321000812B815109E1A50E805DD8A012EF19F034
:1032200014EF19F007EF19F07E4B7F2B7C517E5D78
:103230007D517F59D8A01FEF19F021EF19F003EF4E
:1032400019F012006BEC19F00009D8A42AEF19F05C
:103250002CEF19F022EF19F08C888C8AF9EC1AF017
:103260008C8CF9EC1AF08338F00BF00B00017C6FBA
:103270008C9CF9EC1AF08C8CF9EC1AF083500F0B43
:1032800000017C138C9C8C9A8C987C511200000E4F
:1032900000018B6F000E8A6F5AEF19F089C07CF025
:1032A0007D6B87C07EF088C07FF07BEC13F000015F
:1032B0008A4B8B2B8A518525D96E8B518621DA6EEC
:1032C000DF50896F8951D8A468EF19F06AEF19F0BF
:1032D0004EEF19F012008C888C9AF9EC1AF08C8C55
:1032E000F9EC1AF083A677EF19F079EF19F084EF73
:1032F00019F08C9CF9EC1AF08C8CF9EC1AF08C9C7F
:103300008C98010E8DEF19F08C9CF9EC1AF08C8CD6
:10331000F9EC1AF08C9C8C98000E12008C888C9A18
:103320000DEC1BF08C8C0DEC1BF083A69AEF19F0C2
:103330009CEF19F0A7EF19F08C9C0DEC1BF08C8C16
:103340000DEC1BF08C9C8C98010EB0EF19F08C9C4E
:103350000DEC1BF08C8C0DEC1BF08C9C8C98000EF3
:103360001200000E106E000E0F6EC2EF19F00EC0AC
:1033700001F0026A0CC003F00DC004F046EC14F03A
:103380000F4A102A0F500A24D96E10500B20DA6E03
:10339000DF500E6E0E50D8A4D0EF19F0D2EF19F016
:1033A000B7EF19F012007CC07EF07DC07FF0DCEF3B
:1033B00019F000017C4B7D2B7CC0D9FF7DC0DAFF6A
:1033C000DF50D8A4E6EF19F0E8EF19F0D9EF19F0C3
:1033D00000017E517C5D7C6F7F517D597D6F1200B5
:1033E00001C003F002C004F0F8EF19F0014A022A0C
:1033F00001C0D9FF02C0DAFFDF50D8A402EF1AF0F3
:1034000004EF1AF0F6EF19F00350015C016E04505E
:103410000258026E1200444154453A2030302F3099
:10342000302F32303030003132334134353642378C
:103430003839432A30234454494D453A2030303AF4
:0B34400030303A303000053205320118
:10344C0000017C6FCF0EBD16BD50F00B0C09BD6E8C
:10345C009492CF0EBA16BA50F00B0C09BA6E949423
:10346C007CC0CBFFCA50FC0B0209CA6ECA84120086
:10347C0000017D6F7DC07CF00001D8907C37D89026
:10348C007C37C250C30B7C11C26EC282C2B251EFE8
:10349C001AF053EF1AF04CEF1AF0C4501200F00E61
:1034AC008A6E820E00017C6FDD0EE82EFED77C2F1B
:1034BC00FCD700D0F00E8118D8A467EF1AF069EF92
:1034CC001AF057EF1AF01200026E02C001F0D890F9
:1034DC000136D8900136C250C30B0110C26EC282A5
:1034EC00C2B27BEF1AF07DEF1AF076EF1AF0C450EF
:1034FC001200C150F00B0B09C16ECF0EC116C09E4D
:10350C00C050C70B1809C06EC050F80B0509C06E2F
:10351C00C292C280120083C07DF084C07EF085C050
:10352C007FF086C080F03BEC16F087C07DF088C041
:10353C007EF097EC17F0120008C002F009C003F0FF
:10354C000AC004F00BC005F07BEC16F00CC002F0C6
:10355C000DC003F0C7EC17F01200DCEC1AF02B0EC8
:10356C00F6EC15F00C0E24EC18F0010E24EC18F00F
:10357C00800E24EC18F01200CD8ECD92300ECD12B0
:10358C00000ECF6E000ECE6ECD809E909D809F90D3
:10359C001200D59CD59AF80ED516D5963C0ED76E42
:1035AC00B00ED66EF294F28AF1941200A30E0001C2
:1035BC007C6F550EE82EFED77C2FFCD712002E0EFA
:1035CC0000017C6F730EE82EFED77C2FFCD7120007
:1035DC00F00E936EF19E55EC1AF01200A60EE82E2A
:1035EC00FED700D01200030EE82EFED700F012001A
:1035FC0000017C6F7CC0BBFF120000017C6F7CC0A3
:10360C00BEFF1200A60EE82EFED700D01200030E4D
:0D361C00E82EFED700F0120012001200038D
:020000040020DA
:08000000FFFFFFFFFFFFFFFF00
:020000040030CA
:0E000000000C1E1EFF8181FF0FC00FE00F409D
:00000001FF
